{
  "contractName": "AlgerToken",
  "abi": [
    {
      "constant": true,
      "inputs": [],
      "name": "name",
      "outputs": [
        {
          "name": "",
          "type": "string"
        }
      ],
      "payable": false,
      "stateMutability": "view",
      "type": "function",
      "signature": "0x06fdde03"
    },
    {
      "constant": false,
      "inputs": [
        {
          "name": "spender",
          "type": "address"
        },
        {
          "name": "value",
          "type": "uint256"
        }
      ],
      "name": "approve",
      "outputs": [
        {
          "name": "",
          "type": "bool"
        }
      ],
      "payable": false,
      "stateMutability": "nonpayable",
      "type": "function",
      "signature": "0x095ea7b3"
    },
    {
      "constant": true,
      "inputs": [],
      "name": "totalSupply",
      "outputs": [
        {
          "name": "",
          "type": "uint256"
        }
      ],
      "payable": false,
      "stateMutability": "view",
      "type": "function",
      "signature": "0x18160ddd"
    },
    {
      "constant": false,
      "inputs": [
        {
          "name": "from",
          "type": "address"
        },
        {
          "name": "to",
          "type": "address"
        },
        {
          "name": "value",
          "type": "uint256"
        }
      ],
      "name": "transferFrom",
      "outputs": [
        {
          "name": "",
          "type": "bool"
        }
      ],
      "payable": false,
      "stateMutability": "nonpayable",
      "type": "function",
      "signature": "0x23b872dd"
    },
    {
      "constant": true,
      "inputs": [],
      "name": "decimals",
      "outputs": [
        {
          "name": "",
          "type": "uint256"
        }
      ],
      "payable": false,
      "stateMutability": "view",
      "type": "function",
      "signature": "0x313ce567"
    },
    {
      "constant": true,
      "inputs": [],
      "name": "cap",
      "outputs": [
        {
          "name": "",
          "type": "uint256"
        }
      ],
      "payable": false,
      "stateMutability": "view",
      "type": "function",
      "signature": "0x355274ea"
    },
    {
      "constant": false,
      "inputs": [
        {
          "name": "spender",
          "type": "address"
        },
        {
          "name": "addedValue",
          "type": "uint256"
        }
      ],
      "name": "increaseAllowance",
      "outputs": [
        {
          "name": "",
          "type": "bool"
        }
      ],
      "payable": false,
      "stateMutability": "nonpayable",
      "type": "function",
      "signature": "0x39509351"
    },
    {
      "constant": false,
      "inputs": [
        {
          "name": "to",
          "type": "address"
        },
        {
          "name": "value",
          "type": "uint256"
        }
      ],
      "name": "mint",
      "outputs": [
        {
          "name": "",
          "type": "bool"
        }
      ],
      "payable": false,
      "stateMutability": "nonpayable",
      "type": "function",
      "signature": "0x40c10f19"
    },
    {
      "constant": true,
      "inputs": [
        {
          "name": "owner",
          "type": "address"
        }
      ],
      "name": "balanceOf",
      "outputs": [
        {
          "name": "",
          "type": "uint256"
        }
      ],
      "payable": false,
      "stateMutability": "view",
      "type": "function",
      "signature": "0x70a08231"
    },
    {
      "constant": true,
      "inputs": [],
      "name": "symbol",
      "outputs": [
        {
          "name": "",
          "type": "string"
        }
      ],
      "payable": false,
      "stateMutability": "view",
      "type": "function",
      "signature": "0x95d89b41"
    },
    {
      "constant": false,
      "inputs": [
        {
          "name": "account",
          "type": "address"
        }
      ],
      "name": "addMinter",
      "outputs": [],
      "payable": false,
      "stateMutability": "nonpayable",
      "type": "function",
      "signature": "0x983b2d56"
    },
    {
      "constant": false,
      "inputs": [],
      "name": "renounceMinter",
      "outputs": [],
      "payable": false,
      "stateMutability": "nonpayable",
      "type": "function",
      "signature": "0x98650275"
    },
    {
      "constant": false,
      "inputs": [
        {
          "name": "spender",
          "type": "address"
        },
        {
          "name": "subtractedValue",
          "type": "uint256"
        }
      ],
      "name": "decreaseAllowance",
      "outputs": [
        {
          "name": "",
          "type": "bool"
        }
      ],
      "payable": false,
      "stateMutability": "nonpayable",
      "type": "function",
      "signature": "0xa457c2d7"
    },
    {
      "constant": false,
      "inputs": [
        {
          "name": "to",
          "type": "address"
        },
        {
          "name": "value",
          "type": "uint256"
        }
      ],
      "name": "transfer",
      "outputs": [
        {
          "name": "",
          "type": "bool"
        }
      ],
      "payable": false,
      "stateMutability": "nonpayable",
      "type": "function",
      "signature": "0xa9059cbb"
    },
    {
      "constant": true,
      "inputs": [
        {
          "name": "account",
          "type": "address"
        }
      ],
      "name": "isMinter",
      "outputs": [
        {
          "name": "",
          "type": "bool"
        }
      ],
      "payable": false,
      "stateMutability": "view",
      "type": "function",
      "signature": "0xaa271e1a"
    },
    {
      "constant": true,
      "inputs": [
        {
          "name": "owner",
          "type": "address"
        },
        {
          "name": "spender",
          "type": "address"
        }
      ],
      "name": "allowance",
      "outputs": [
        {
          "name": "",
          "type": "uint256"
        }
      ],
      "payable": false,
      "stateMutability": "view",
      "type": "function",
      "signature": "0xdd62ed3e"
    },
    {
      "inputs": [
        {
          "name": "_cap",
          "type": "uint256"
        }
      ],
      "payable": false,
      "stateMutability": "nonpayable",
      "type": "constructor",
      "signature": "constructor"
    },
    {
      "anonymous": false,
      "inputs": [
        {
          "indexed": true,
          "name": "account",
          "type": "address"
        }
      ],
      "name": "MinterAdded",
      "type": "event",
      "signature": "0x6ae172837ea30b801fbfcdd4108aa1d5bf8ff775444fd70256b44e6bf3dfc3f6"
    },
    {
      "anonymous": false,
      "inputs": [
        {
          "indexed": true,
          "name": "account",
          "type": "address"
        }
      ],
      "name": "MinterRemoved",
      "type": "event",
      "signature": "0xe94479a9f7e1952cc78f2d6baab678adc1b772d936c6583def489e524cb66692"
    },
    {
      "anonymous": false,
      "inputs": [
        {
          "indexed": true,
          "name": "from",
          "type": "address"
        },
        {
          "indexed": true,
          "name": "to",
          "type": "address"
        },
        {
          "indexed": false,
          "name": "value",
          "type": "uint256"
        }
      ],
      "name": "Transfer",
      "type": "event",
      "signature": "0xddf252ad1be2c89b69c2b068fc378daa952ba7f163c4a11628f55a4df523b3ef"
    },
    {
      "anonymous": false,
      "inputs": [
        {
          "indexed": true,
          "name": "owner",
          "type": "address"
        },
        {
          "indexed": true,
          "name": "spender",
          "type": "address"
        },
        {
          "indexed": false,
          "name": "value",
          "type": "uint256"
        }
      ],
      "name": "Approval",
      "type": "event",
      "signature": "0x8c5be1e5ebec7d5bd14f71427d1e84f3dd0314c0f7b2291e5b200ac8c7c3b925"
    }
  ],
  "bytecode": "0x60c0604052600a60808190527f416c676572546f6b656e0000000000000000000000000000000000000000000060a0908152620000409160059190620002f6565b506040805180820190915260038082527f414c47000000000000000000000000000000000000000000000000000000000060209092019182526200008791600691620002f6565b5060086007553480156200009a57600080fd5b506040516020806200132c83398101806040526020811015620000bc57600080fd5b505180620000d3336401000000006200014d810204565b600081116200014357604080517f08c379a000000000000000000000000000000000000000000000000000000000815260206004820152601d60248201527f636170206d7573742062652067726561746572207468656e207a65726f000000604482015290519081900360640190fd5b600455506200039b565b6200016860038264010000000062000dc16200019f82021704565b604051600160a060020a038216907f6ae172837ea30b801fbfcdd4108aa1d5bf8ff775444fd70256b44e6bf3dfc3f690600090a250565b600160a060020a03811615156200021757604080517f08c379a000000000000000000000000000000000000000000000000000000000815260206004820152601760248201527f7370656e646572206973206e6f7420617070726f766564000000000000000000604482015290519081900360640190fd5b6200022c82826401000000006200025c810204565b156200023757600080fd5b600160a060020a0316600090815260209190915260409020805460ff19166001179055565b6000600160a060020a0382161515620002d657604080517f08c379a000000000000000000000000000000000000000000000000000000000815260206004820152601760248201527f7370656e646572206973206e6f7420617070726f766564000000000000000000604482015290519081900360640190fd5b50600160a060020a03166000908152602091909152604090205460ff1690565b828054600181600116156101000203166002900490600052602060002090601f016020900481019282601f106200033957805160ff191683800117855562000369565b8280016001018555821562000369579182015b82811115620003695782518255916020019190600101906200034c565b50620003779291506200037b565b5090565b6200039891905b8082111562000377576000815560010162000382565b90565b610f8180620003ab6000396000f3fe6080604052600436106100e55763ffffffff7c010000000000000000000000000000000000000000000000000000000060003504166306fdde0381146100ea578063095ea7b31461017457806318160ddd146101c157806323b872dd146101e8578063313ce5671461022b578063355274ea14610240578063395093511461025557806340c10f191461028e57806370a08231146102c757806395d89b41146102fa578063983b2d561461030f5780639865027514610344578063a457c2d714610359578063a9059cbb14610392578063aa271e1a146103cb578063dd62ed3e146103fe575b600080fd5b3480156100f657600080fd5b506100ff610439565b6040805160208082528351818301528351919283929083019185019080838360005b83811015610139578181015183820152602001610121565b50505050905090810190601f1680156101665780820380516001836020036101000a031916815260200191505b509250505060405180910390f35b34801561018057600080fd5b506101ad6004803603604081101561019757600080fd5b50600160a060020a0381351690602001356104c7565b604080519115158252519081900360200190f35b3480156101cd57600080fd5b506101d6610583565b60408051918252519081900360200190f35b3480156101f457600080fd5b506101ad6004803603606081101561020b57600080fd5b50600160a060020a03813581169160208101359091169060400135610589565b34801561023757600080fd5b506101d6610676565b34801561024c57600080fd5b506101d661067c565b34801561026157600080fd5b506101ad6004803603604081101561027857600080fd5b50600160a060020a038135169060200135610682565b34801561029a57600080fd5b506101ad600480360360408110156102b157600080fd5b50600160a060020a038135169060200135610770565b3480156102d357600080fd5b506101d6600480360360208110156102ea57600080fd5b5035600160a060020a03166107d7565b34801561030657600080fd5b506100ff6107f2565b34801561031b57600080fd5b506103426004803603602081101561033257600080fd5b5035600160a060020a031661084d565b005b34801561035057600080fd5b506103426108ab565b34801561036557600080fd5b506101ad6004803603604081101561037c57600080fd5b50600160a060020a0381351690602001356108b6565b34801561039e57600080fd5b506101ad600480360360408110156103b557600080fd5b50600160a060020a03813516906020013561093f565b3480156103d757600080fd5b506101ad600480360360208110156103ee57600080fd5b5035600160a060020a031661094c565b34801561040a57600080fd5b506101d66004803603604081101561042157600080fd5b50600160a060020a0381358116916020013516610965565b6005805460408051602060026001851615610100026000190190941693909304601f810184900484028201840190925281815292918301828280156104bf5780601f10610494576101008083540402835291602001916104bf565b820191906000526020600020905b8154815290600101906020018083116104a257829003601f168201915b505050505081565b6000600160a060020a038316151561051c5760408051600080516020610f3683398151915281526020600482015260176024820152600080516020610f16833981519152604482015290519081900360640190fd5b336000818152600160209081526040808320600160a060020a03881680855290835292819020869055805186815290519293927f8c5be1e5ebec7d5bd14f71427d1e84f3dd0314c0f7b2291e5b200ac8c7c3b925929181900390910190a350600192915050565b60025490565b600160a060020a03831660009081526001602090815260408083203384529091528120548211156106095760408051600080516020610f36833981519152815260206004820152601c60248201527f76616c756520697320756e64657220616c6c6f776564206c696d697400000000604482015290519081900360640190fd5b600160a060020a038416600090815260016020908152604080832033845290915290205461063d908363ffffffff61099016565b600160a060020a038516600090815260016020908152604080832033845290915290205561066c8484846109a5565b5060019392505050565b60075481565b60045490565b6000600160a060020a03831615156106d75760408051600080516020610f3683398151915281526020600482015260176024820152600080516020610f16833981519152604482015290519081900360640190fd5b336000908152600160209081526040808320600160a060020a038716845290915290205461070b908363ffffffff610b2516565b336000818152600160209081526040808320600160a060020a0389168085529083529281902085905580519485525191937f8c5be1e5ebec7d5bd14f71427d1e84f3dd0314c0f7b2291e5b200ac8c7c3b925929081900390910190a350600192915050565b600061077b3361094c565b15156107c45760408051600080516020610f3683398151915281526020600482015260176024820152600080516020610f16833981519152604482015290519081900360640190fd5b6107ce8383610b3e565b50600192915050565b600160a060020a031660009081526020819052604090205490565b6006805460408051602060026001851615610100026000190190941693909304601f810184900484028201840190925281815292918301828280156104bf5780601f10610494576101008083540402835291602001916104bf565b6108563361094c565b151561089f5760408051600080516020610f3683398151915281526020600482015260176024820152600080516020610f16833981519152604482015290519081900360640190fd5b6108a881610bc2565b50565b6108b433610c0a565b565b6000600160a060020a038316151561090b5760408051600080516020610f3683398151915281526020600482015260176024820152600080516020610f16833981519152604482015290519081900360640190fd5b336000908152600160209081526040808320600160a060020a038716845290915290205461070b908363ffffffff61099016565b60006107ce3384846109a5565b600061095f60038363ffffffff610c5216565b92915050565b600160a060020a03918216600090815260016020908152604080832093909416825291909152205490565b60008282111561099f57600080fd5b50900390565b600160a060020a038316600090815260208190526040902054811115610a1a5760408051600080516020610f36833981519152815260206004820152601660248201527f76616c75652069732062656c6f772062616c616e636500000000000000000000604482015290519081900360640190fd5b600160a060020a0382161515610a6d5760408051600080516020610f3683398151915281526020600482015260176024820152600080516020610f16833981519152604482015290519081900360640190fd5b600160a060020a038316600090815260208190526040902054610a96908263ffffffff61099016565b600160a060020a038085166000908152602081905260408082209390935590841681522054610acb908263ffffffff610b2516565b600160a060020a038084166000818152602081815260409182902094909455805185815290519193928716927fddf252ad1be2c89b69c2b068fc378daa952ba7f163c4a11628f55a4df523b3ef92918290030190a3505050565b600082820183811015610b3757600080fd5b9392505050565b600454610b5982610b4d610583565b9063ffffffff610b2516565b1115610bb45760408051600080516020610f36833981519152815260206004820152601060248201527f6d696e7420657863656564732063617000000000000000000000000000000000604482015290519081900360640190fd5b610bbe8282610cc7565b5050565b610bd360038263ffffffff610dc116565b604051600160a060020a038216907f6ae172837ea30b801fbfcdd4108aa1d5bf8ff775444fd70256b44e6bf3dfc3f690600090a250565b610c1b60038263ffffffff610e4d16565b604051600160a060020a038216907fe94479a9f7e1952cc78f2d6baab678adc1b772d936c6583def489e524cb6669290600090a250565b6000600160a060020a0382161515610ca75760408051600080516020610f3683398151915281526020600482015260176024820152600080516020610f16833981519152604482015290519081900360640190fd5b50600160a060020a03166000908152602091909152604090205460ff1690565b600160a060020a0382161515610d2c5760408051600080516020610f36833981519152815260206004820152601660248201527f6d696e746572206973206e6f7420617070726f76656400000000000000000000604482015290519081900360640190fd5b600254610d3f908263ffffffff610b2516565b600255600160a060020a038216600090815260208190526040902054610d6b908263ffffffff610b2516565b600160a060020a0383166000818152602081815260408083209490945583518581529351929391927fddf252ad1be2c89b69c2b068fc378daa952ba7f163c4a11628f55a4df523b3ef9281900390910190a35050565b600160a060020a0381161515610e145760408051600080516020610f3683398151915281526020600482015260176024820152600080516020610f16833981519152604482015290519081900360640190fd5b610e1e8282610c52565b15610e2857600080fd5b600160a060020a0316600090815260209190915260409020805460ff19166001179055565b600160a060020a0381161515610ea05760408051600080516020610f3683398151915281526020600482015260176024820152600080516020610f16833981519152604482015290519081900360640190fd5b610eaa8282610c52565b1515610ef35760408051600080516020610f3683398151915281526020600482015260176024820152600080516020610f16833981519152604482015290519081900360640190fd5b600160a060020a0316600090815260209190915260409020805460ff1916905556fe7370656e646572206973206e6f7420617070726f76656400000000000000000008c379a000000000000000000000000000000000000000000000000000000000a165627a7a72305820791999cb6ad092864350e6cc32878ca2155b0fcae501eb1e19aa6edf1efbe5810029",
  "source": "pragma solidity ^0.5.0;\n\nimport './ERC20.sol';\ncontract AlgerToken is ERC20Capped {\n  string public name = \"AlgerToken\";\n  string public symbol = \"ALG\";\n  uint public decimals = 8;\n\n  constructor(uint _cap) ERC20Capped(_cap) public {}\n\n}\n",
  "sourcePath": "/home/steve/codes/da_block/algernon/contracts/AlgerToken.sol",
  "compiler": {
    "name": "solc",
    "version": "0.5.0+commit.1d4f565a.Emscripten.clang"
  },
  "schemaVersion": "3.0.1",
  "updatedAt": "2019-01-27T08:36:15.288Z",
  "devdoc": {
    "methods": {
      "allowance(address,address)": {
        "details": "Function to check the amount of tokens that an owner allowed to a spender.",
        "params": {
          "owner": "address The address which owns the funds.",
          "spender": "address The address which will spend the funds."
        },
        "return": "A uint256 specifying the amount of tokens still available for the spender."
      },
      "approve(address,uint256)": {
        "details": "Approve the passed address to spend the specified amount of tokens on behalf of msg.sender. Beware that changing an allowance with this method brings the risk that someone may use both the old and the new allowance by unfortunate transaction ordering. One possible solution to mitigate this race condition is to first reduce the spender\"s allowance to 0 and set the desired value afterwards: https://github.com/ethereum/EIPs/issues/20#issuecomment-263524729",
        "params": {
          "spender": "The address which will spend the funds.",
          "value": "The amount of tokens to be spent."
        }
      },
      "balanceOf(address)": {
        "details": "Gets the balance of the specified address.",
        "params": {
          "owner": "The address to query the balance of."
        },
        "return": "An uint256 representing the amount owned by the passed address."
      },
      "cap()": {
        "return": "the cap for the token minting."
      },
      "decreaseAllowance(address,uint256)": {
        "details": "Decrease the amount of tokens that an owner allowed to a spender. approve should be called when allowed_[_spender] == 0. To decrement allowed value is better to use this function to avoid 2 calls (and wait until the first transaction is mined) From MonolithDAO Token.sol",
        "params": {
          "spender": "The address which will spend the funds.",
          "subtractedValue": "The amount of tokens to decrease the allowance by."
        }
      },
      "increaseAllowance(address,uint256)": {
        "details": "Increase the amount of tokens that an owner allowed to a spender. approve should be called when allowed_[_spender] == 0. To increment allowed value is better to use this function to avoid 2 calls (and wait until the first transaction is mined) From MonolithDAO Token.sol",
        "params": {
          "addedValue": "The amount of tokens to increase the allowance by.",
          "spender": "The address which will spend the funds."
        }
      },
      "mint(address,uint256)": {
        "details": "Function to mint tokens",
        "params": {
          "to": "The address that will receive the minted tokens.",
          "value": "The amount of tokens to mint."
        },
        "return": "A boolean that indicates if the operation was successful."
      },
      "totalSupply()": {
        "details": "Total number of tokens in existence"
      },
      "transfer(address,uint256)": {
        "details": "Transfer token for a specified address",
        "params": {
          "to": "The address to transfer to.",
          "value": "The amount to be transferred."
        }
      },
      "transferFrom(address,address,uint256)": {
        "details": "Transfer tokens from one address to another",
        "params": {
          "from": "address The address which you want to send tokens from",
          "to": "address The address which you want to transfer to",
          "value": "uint256 the amount of tokens to be transferred"
        }
      }
    }
  },
  "userdoc": {
    "methods": {}
  }
}